{"contracts/ForceTransfer.sol":{"ForceTransfer":{"abi":[{"anonymous":false,"inputs":[{"indexed":true,"internalType":"address","name":"sender","type":"address"},{"indexed":true,"internalType":"address","name":"recipient","type":"address"},{"indexed":false,"internalType":"uint256","name":"amount","type":"uint256"}],"name":"ForcedTransfer","type":"event"},{"inputs":[{"internalType":"address payable","name":"recipient","type":"address"}],"name":"force","outputs":[],"stateMutability":"payable","type":"function"}],"evm":{"bytecode":{"linkReferences":{},"object":"608060405234801561000f575f80fd5b506101778061001d5f395ff3fe60806040526004361061001d575f3560e01c80634c037ba114610021575b5f80fd5b61003461002f3660046100da565b610036565b005b3481604051610044906100ce565b73ffffffffffffffffffffffffffffffffffffffff90911681526020016040518091039082f090508015801561007c573d5f803e3d5ffd5b505060405134815273ffffffffffffffffffffffffffffffffffffffff82169033907f7b3ce50c216d2ccf9919c6b9f1bfb33f0350a33010f188750b4af38e004481389060200160405180910390a350565b60568061011583390190565b5f602082840312156100ea575f80fd5b813573ffffffffffffffffffffffffffffffffffffffff8116811461010d575f80fd5b939250505056fe608060405260405160563803806056833981016040819052601e91602a565b806001600160a01b0316ff5b5f602082840312156039575f80fd5b81516001600160a01b0381168114604e575f80fd5b939250505056fea164736f6c6343000814000a","opcodes":"PUSH1 0x80 PUSH1 0x40 MSTORE CALLVALUE DUP1 ISZERO PUSH2 0xF JUMPI PUSH0 DUP1 REVERT JUMPDEST POP PUSH2 0x177 DUP1 PUSH2 0x1D PUSH0 CODECOPY PUSH0 RETURN INVALID PUSH1 0x80 PUSH1 0x40 MSTORE PUSH1 0x4 CALLDATASIZE LT PUSH2 0x1D JUMPI PUSH0 CALLDATALOAD PUSH1 0xE0 SHR DUP1 PUSH4 0x4C037BA1 EQ PUSH2 0x21 JUMPI JUMPDEST PUSH0 DUP1 REVERT JUMPDEST PUSH2 0x34 PUSH2 0x2F CALLDATASIZE PUSH1 0x4 PUSH2 0xDA JUMP JUMPDEST PUSH2 0x36 JUMP JUMPDEST STOP JUMPDEST CALLVALUE DUP2 PUSH1 0x40 MLOAD PUSH2 0x44 SWAP1 PUSH2 0xCE JUMP JUMPDEST PUSH20 0xFFFFFFFFFFFFFFFFFFFFFFFFFFFFFFFFFFFFFFFF SWAP1 SWAP2 AND DUP2 MSTORE PUSH1 0x20 ADD PUSH1 0x40 MLOAD DUP1 SWAP2 SUB SWAP1 DUP3 CREATE SWAP1 POP DUP1 ISZERO DUP1 ISZERO PUSH2 0x7C JUMPI RETURNDATASIZE PUSH0 DUP1 RETURNDATACOPY RETURNDATASIZE PUSH0 REVERT JUMPDEST POP POP PUSH1 0x40 MLOAD CALLVALUE DUP2 MSTORE PUSH20 0xFFFFFFFFFFFFFFFFFFFFFFFFFFFFFFFFFFFFFFFF DUP3 AND SWAP1 CALLER SWAP1 PUSH32 0x7B3CE50C216D2CCF9919C6B9F1BFB33F0350A33010F188750B4AF38E00448138 SWAP1 PUSH1 0x20 ADD PUSH1 0x40 MLOAD DUP1 SWAP2 SUB SWAP1 LOG3 POP JUMP JUMPDEST PUSH1 0x56 DUP1 PUSH2 0x115 DUP4 CODECOPY ADD SWAP1 JUMP JUMPDEST PUSH0 PUSH1 0x20 DUP3 DUP5 SUB SLT ISZERO PUSH2 0xEA JUMPI PUSH0 DUP1 REVERT JUMPDEST DUP2 CALLDATALOAD PUSH20 0xFFFFFFFFFFFFFFFFFFFFFFFFFFFFFFFFFFFFFFFF DUP2 AND DUP2 EQ PUSH2 0x10D JUMPI PUSH0 DUP1 REVERT JUMPDEST SWAP4 SWAP3 POP POP POP JUMP INVALID PUSH1 0x80 PUSH1 0x40 MSTORE PUSH1 0x40 MLOAD PUSH1 0x56 CODESIZE SUB DUP1 PUSH1 0x56 DUP4 CODECOPY DUP2 ADD PUSH1 0x40 DUP2 SWAP1 MSTORE PUSH1 0x1E SWAP2 PUSH1 0x2A JUMP JUMPDEST DUP1 PUSH1 0x1 PUSH1 0x1 PUSH1 0xA0 SHL SUB AND SELFDESTRUCT JUMPDEST PUSH0 PUSH1 0x20 DUP3 DUP5 SUB SLT ISZERO PUSH1 0x39 JUMPI PUSH0 DUP1 REVERT JUMPDEST DUP2 MLOAD PUSH1 0x1 PUSH1 0x1 PUSH1 0xA0 SHL SUB DUP2 AND DUP2 EQ PUSH1 0x4E JUMPI PUSH0 DUP1 REVERT JUMPDEST SWAP4 SWAP3 POP POP POP JUMP INVALID LOG1 PUSH5 0x736F6C6343 STOP ADDMOD EQ STOP EXP "},"methodIdentifiers":{"force(address)":"4c037ba1"}}}}}