{
  "_format": "hh-sol-artifact-1",
  "contractName": "ForceTransfer",
  "sourceName": "contracts/ForceTransfer.sol",
  "abi": [
    {
      "anonymous": false,
      "inputs": [
        {
          "indexed": true,
          "internalType": "address",
          "name": "sender",
          "type": "address"
        },
        {
          "indexed": true,
          "internalType": "address",
          "name": "recipient",
          "type": "address"
        },
        {
          "indexed": false,
          "internalType": "uint256",
          "name": "amount",
          "type": "uint256"
        }
      ],
      "name": "ForcedTransfer",
      "type": "event"
    },
    {
      "inputs": [
        {
          "internalType": "address payable",
          "name": "recipient",
          "type": "address"
        }
      ],
      "name": "force",
      "outputs": [],
      "stateMutability": "payable",
      "type": "function"
    }
  ],
  "bytecode": "0x608060405234801561000f575f80fd5b506101778061001d5f395ff3fe60806040526004361061001d575f3560e01c80634c037ba114610021575b5f80fd5b61003461002f3660046100da565b610036565b005b3481604051610044906100ce565b73ffffffffffffffffffffffffffffffffffffffff90911681526020016040518091039082f090508015801561007c573d5f803e3d5ffd5b505060405134815273ffffffffffffffffffffffffffffffffffffffff82169033907f7b3ce50c216d2ccf9919c6b9f1bfb33f0350a33010f188750b4af38e004481389060200160405180910390a350565b60568061011583390190565b5f602082840312156100ea575f80fd5b813573ffffffffffffffffffffffffffffffffffffffff8116811461010d575f80fd5b939250505056fe608060405260405160563803806056833981016040819052601e91602a565b806001600160a01b0316ff5b5f602082840312156039575f80fd5b81516001600160a01b0381168114604e575f80fd5b939250505056fea164736f6c6343000814000a",
  "linkReferences": {},
  "deployedLinkReferences": {}
}