{
  "_format": "hh-sol-artifact-1",
  "contractName": "ForceTransfer",
  "sourceName": "contracts/ForceTransfer.sol",
  "abi": [
    {
      "inputs": [
        {
          "internalType": "address payable",
          "name": "recipient",
          "type": "address"
        }
      ],
      "name": "force",
      "outputs": [],
      "stateMutability": "payable",
      "type": "function"
    }
  ],
  "bytecode": "0x608060405234801561001057600080fd5b50610134806100206000396000f3fe60806040526004361061001e5760003560e01c80634c037ba114610023575b600080fd5b610036610031366004610091565b610038565b005b348160405161004690610085565b73ffffffffffffffffffffffffffffffffffffffff90911681526020016040518091039082f0905080158015610080573d6000803e3d6000fd5b505050565b6059806100cf83390190565b6000602082840312156100a357600080fd5b813573ffffffffffffffffffffffffffffffffffffffff811681146100c757600080fd5b939250505056fe608060405260405160593803806059833981016040819052601e91602a565b806001600160a01b0316ff5b600060208284031215603b57600080fd5b81516001600160a01b0381168114605157600080fd5b939250505056fea164736f6c6343000814000a",
  "linkReferences": {},
  "deployedLinkReferences": {}
}